:100000000C9435000C945D000C945D000C945D0024
:100010000C945D000C945D000C945D000C945D00EC
:100020000C945D000C945D000C945D000C945D00DC
:100030000C945D000C945D000C945D000C945D00CC
:100040000C9406020C945D000C94D4010C94AE0147
:100050000C945D000C945D000C945D000C945D00AC
:100060000C945D000C945D00270311241FBECFEF9C
:10007000D8E0DEBFCDBF11E0A0E0B1E0E8EBF6E0F4
:1000800002C005900D92A036B107D9F722E0A0E694
:10009000B1E001C01D92A630B207E1F710E0C5E360
:1000A000D0E004C02197FE010E945403C433D1075D
:1000B000C9F70E9450020C945A030C940000AF92AE
:1000C000BF92CF92DF92EF92FF920F931F93CF9345
:1000D000DF936C017B018B01040F151FEB015E01A7
:1000E000AE18BF08C017D10759F06991D601ED913C
:1000F000FC910190F081E02DC6010995892B79F7DB
:10010000C501DF91CF911F910F91FF90EF90DF908C
:10011000CF90BF90AF900895FC01538D448D252F53
:1001200030E0842F90E0821B930B541710F0CF9691
:10013000089501970895FC01918D828D981761F0C3
:10014000A28DAE0FBF2FB11D5D968C91928D9F5FDA
:100150009F73928F90E008958FEF9FEF0895FC01B9
:10016000918D828D981731F0828DE80FF11D858D6C
:1001700090E008958FEF9FEF0895FC01918D228DFF
:10018000892F90E0805C9F4F821B91098F73992784
:10019000089589E691E00E94BD0021E0892B09F4D1
:1001A00020E0822F089580E090E0892B29F00E94C2
:1001B000C90081110C9400000895FC01A48DA80FC2
:1001C000B92FB11DA35ABF4F2C91848D90E0019699
:1001D0008F739927848FA689B7892C93A089B189B9
:1001E0008C91837080648C93938D848D981306C05A
:1001F0000288F389E02D80818F7D80830895EF92BE
:10020000FF920F931F93CF93DF93EC0181E0888FD0
:100210009B8D8C8D98131AC0E889F989808185FFA0
:1002200015C09FB7F894EE89FF896083E889F98942
:1002300080818370806480839FBF81E090E0DF9144
:10024000CF911F910F91FF90EF900895F62E0B8D97
:1002500010E00F5F1F4F0F731127E02E8C8D8E1152
:100260000CC00FB607FCFACFE889F989808185FFB9
:10027000F5CFCE010E94DD00F1CFEB8DEC0FFD2F0D
:10028000F11DE35AFF4FF0829FB7F8940B8FEA8974
:10029000FB8980818062CFCFCF93DF93EC01888D83
:1002A0008823B9F0AA89BB89E889F9898C9185FDF1
:1002B00003C0808186FD0DC00FB607FCF7CF8C917F
:1002C00085FFF2CF808185FFEDCFCE010E94DD005A
:1002D000E9CFDF91CF9108953FB7F8948091650100
:1002E00090916601A0916701B091680126B5A89B25
:1002F00005C02F3F19F00196A11DB11D3FBFBA2FB8
:10030000A92F982F8827BC01CD01620F711D811D77
:10031000911D42E0660F771F881F991F4A95D1F7FC
:100320000895CF93DF93FC0101900020E9F7319706
:10033000AF01481B590BBC0189E691E00E945F00A8
:10034000EC0142E050E062E171E089E691E00E9458
:100350005F008C0F9D1FDF91CF9108951F920F9228
:100360000FB60F9211242F933F934F935F936F9388
:100370007F938F939F93AF93BF93EF93FF9389E600
:1003800091E00E94DD00FF91EF91BF91AF919F91AD
:100390008F917F916F915F914F913F912F910F902E
:1003A0000FBE0F901F9018951F920F920FB60F92CD
:1003B00011242F938F939F93EF93FF93E0917901F3
:1003C000F0917A018081E0917F01F091800182FDBE
:1003D0001BC09081809182018F5F8F732091830178
:1003E000821741F0E0918201F0E0E759FE4F958FCE
:1003F00080938201FF91EF919F918F912F910F90A8
:100400000FBE0F901F9018958081F4CF1F920F920E
:100410000FB60F9211242F933F938F939F93AF9317
:10042000BF938091610190916201A0916301B091AD
:1004300064013091600123E0230F2D3758F50196B8
:10044000A11DB11D20936001809361019093620111
:10045000A0936301B093640180916501909166015E
:10046000A0916701B09168010196A11DB11D809313
:10047000650190936601A0936701B0936801BF91F5
:10048000AF919F918F913F912F910F900FBE0F9041
:100490001F90189526E8230F0296A11DB11DD2CFFB
:1004A000789484B5826084BD84B5816084BD85B54F
:1004B000826085BD85B5816085BD80916E0081605B
:1004C00080936E0010928100809181008260809301
:1004D0008100809181008160809381008091800003
:1004E0008160809380008091B10084608093B1002E
:1004F0008091B00081608093B00080917A00846028
:1005000080937A0080917A00826080937A00809153
:100510007A00816080937A0080917A00806880936D
:100520007A001092C100E0917901F0917A0182E0A5
:100530008083E0917501F09176011082E09177015E
:10054000F09178018FEC808310928101E0917D0120
:10055000F0917E0186E08083E0917B01F0917C0147
:10056000808180618083E0917B01F0917C018081BA
:1005700088608083E0917B01F0917C0180818068BC
:100580008083E0917B01F0917C0180818F7D80836D
:1005900015E4C0E0D0E010937C0080917A00806484
:1005A00080937A0080917A0086FDFCCF909178004C
:1005B0008091790089279827892785369105A4F5A8
:1005C00085E191E00E9491010E946C014B015C0168
:1005D00080E4C82E8FE1D82EE12CF12C0E946C0112
:1005E000681979098A099B09683E7340810591055C
:1005F000A8F321E0C21AD108E108F10888EE880EBC
:1006000083E0981EA11CB11CC114D104E104F104C3
:1006100029F7209709F4BFCF0E94C900882309F465
:10062000BACF0E940000B7CF9C0125563109283C63
:10063000310518F488E291E0C5CF8D5291404E9774
:1006400018F489E391E0BECF8DE491E0BBCFE9E6F9
:10065000F1E01382128288EE93E0A0E0B0E08483A0
:100660009583A683B78384E091E09183808385ECB2
:1006700090E09587848784EC90E09787868780EC6C
:1006800090E0918B808B81EC90E0938B828B82EC5D
:1006900090E0958B848B86EC90E0978B868B118E07
:1006A000128E138E148E0895EE0FFF1F0590F49195
:0806B000E02D0994F894FFCF3E
:1006B80000000000FF005F008C004C01BD009B00A3
:1006C800AF000D0A005761746572204C6576656C41
:1006D8003A20456D707479005761746572204C65D5
:1006E80076656C3A204C6F77005761746572204CC0
:1006F8006576656C3A204D656469756D005761745F
:100708006572204C6576656C3A2048696768000018
:00000001FF
